{
  "_format": "hh-sol-artifact-1",
  "contractName": "Farm",
  "sourceName": "contracts/Farm.sol",
  "abi": [
    {
      "inputs": [
        {
          "internalType": "contract IERC20",
          "name": "_erc20",
          "type": "address"
        },
        {
          "internalType": "uint256",
          "name": "_rewardPerBlock",
          "type": "uint256"
        },
        {
          "internalType": "uint256",
          "name": "_startBlock",
          "type": "uint256"
        }
      ],
      "stateMutability": "nonpayable",
      "type": "constructor"
    },
    {
      "anonymous": false,
      "inputs": [
        {
          "indexed": true,
          "internalType": "address",
          "name": "user",
          "type": "address"
        },
        {
          "indexed": true,
          "internalType": "uint256",
          "name": "pid",
          "type": "uint256"
        },
        {
          "indexed": false,
          "internalType": "uint256",
          "name": "amount",
          "type": "uint256"
        }
      ],
      "name": "Deposit",
      "type": "event"
    },
    {
      "anonymous": false,
      "inputs": [
        {
          "indexed": true,
          "internalType": "address",
          "name": "user",
          "type": "address"
        },
        {
          "indexed": true,
          "internalType": "uint256",
          "name": "pid",
          "type": "uint256"
        },
        {
          "indexed": false,
          "internalType": "uint256",
          "name": "amount",
          "type": "uint256"
        }
      ],
      "name": "EmergencyWithdraw",
      "type": "event"
    },
    {
      "anonymous": false,
      "inputs": [
        {
          "indexed": true,
          "internalType": "address",
          "name": "previousOwner",
          "type": "address"
        },
        {
          "indexed": true,
          "internalType": "address",
          "name": "newOwner",
          "type": "address"
        }
      ],
      "name": "OwnershipTransferred",
      "type": "event"
    },
    {
      "anonymous": false,
      "inputs": [
        {
          "indexed": true,
          "internalType": "address",
          "name": "user",
          "type": "address"
        },
        {
          "indexed": true,
          "internalType": "uint256",
          "name": "pid",
          "type": "uint256"
        },
        {
          "indexed": false,
          "internalType": "uint256",
          "name": "amount",
          "type": "uint256"
        }
      ],
      "name": "Withdraw",
      "type": "event"
    },
    {
      "inputs": [
        {
          "internalType": "uint256",
          "name": "_allocPoint",
          "type": "uint256"
        },
        {
          "internalType": "contract IERC20",
          "name": "_lpToken",
          "type": "address"
        },
        {
          "internalType": "bool",
          "name": "_withUpdate",
          "type": "bool"
        }
      ],
      "name": "add",
      "outputs": [],
      "stateMutability": "nonpayable",
      "type": "function"
    },
    {
      "inputs": [
        {
          "internalType": "uint256",
          "name": "_pid",
          "type": "uint256"
        },
        {
          "internalType": "uint256",
          "name": "_amount",
          "type": "uint256"
        }
      ],
      "name": "deposit",
      "outputs": [],
      "stateMutability": "nonpayable",
      "type": "function"
    },
    {
      "inputs": [
        {
          "internalType": "uint256",
          "name": "_pid",
          "type": "uint256"
        },
        {
          "internalType": "address",
          "name": "_user",
          "type": "address"
        }
      ],
      "name": "deposited",
      "outputs": [
        {
          "internalType": "uint256",
          "name": "",
          "type": "uint256"
        }
      ],
      "stateMutability": "view",
      "type": "function"
    },
    {
      "inputs": [
        {
          "internalType": "uint256",
          "name": "_pid",
          "type": "uint256"
        }
      ],
      "name": "emergencyWithdraw",
      "outputs": [],
      "stateMutability": "nonpayable",
      "type": "function"
    },
    {
      "inputs": [],
      "name": "endBlock",
      "outputs": [
        {
          "internalType": "uint256",
          "name": "",
          "type": "uint256"
        }
      ],
      "stateMutability": "view",
      "type": "function"
    },
    {
      "inputs": [],
      "name": "erc20",
      "outputs": [
        {
          "internalType": "contract IERC20",
          "name": "",
          "type": "address"
        }
      ],
      "stateMutability": "view",
      "type": "function"
    },
    {
      "inputs": [
        {
          "internalType": "contract IERC20",
          "name": "_erc20",
          "type": "address"
        },
        {
          "internalType": "address",
          "name": "_to",
          "type": "address"
        }
      ],
      "name": "erc20Withdraw",
      "outputs": [],
      "stateMutability": "nonpayable",
      "type": "function"
    },
    {
      "inputs": [
        {
          "internalType": "address payable",
          "name": "_to",
          "type": "address"
        }
      ],
      "name": "ethWithdraw",
      "outputs": [],
      "stateMutability": "nonpayable",
      "type": "function"
    },
    {
      "inputs": [
        {
          "internalType": "uint256",
          "name": "_amount",
          "type": "uint256"
        }
      ],
      "name": "fund",
      "outputs": [],
      "stateMutability": "nonpayable",
      "type": "function"
    },
    {
      "inputs": [],
      "name": "massUpdatePools",
      "outputs": [],
      "stateMutability": "nonpayable",
      "type": "function"
    },
    {
      "inputs": [],
      "name": "owner",
      "outputs": [
        {
          "internalType": "address",
          "name": "",
          "type": "address"
        }
      ],
      "stateMutability": "view",
      "type": "function"
    },
    {
      "inputs": [],
      "name": "paidOut",
      "outputs": [
        {
          "internalType": "uint256",
          "name": "",
          "type": "uint256"
        }
      ],
      "stateMutability": "view",
      "type": "function"
    },
    {
      "inputs": [
        {
          "internalType": "uint256",
          "name": "_pid",
          "type": "uint256"
        },
        {
          "internalType": "address",
          "name": "_user",
          "type": "address"
        }
      ],
      "name": "pending",
      "outputs": [
        {
          "internalType": "uint256",
          "name": "",
          "type": "uint256"
        }
      ],
      "stateMutability": "view",
      "type": "function"
    },
    {
      "inputs": [
        {
          "internalType": "uint256",
          "name": "",
          "type": "uint256"
        }
      ],
      "name": "poolInfo",
      "outputs": [
        {
          "internalType": "contract IERC20",
          "name": "lpToken",
          "type": "address"
        },
        {
          "internalType": "uint256",
          "name": "allocPoint",
          "type": "uint256"
        },
        {
          "internalType": "uint256",
          "name": "lastRewardBlock",
          "type": "uint256"
        },
        {
          "internalType": "uint256",
          "name": "accERC20PerShare",
          "type": "uint256"
        }
      ],
      "stateMutability": "view",
      "type": "function"
    },
    {
      "inputs": [],
      "name": "poolLength",
      "outputs": [
        {
          "internalType": "uint256",
          "name": "",
          "type": "uint256"
        }
      ],
      "stateMutability": "view",
      "type": "function"
    },
    {
      "inputs": [],
      "name": "renounceOwnership",
      "outputs": [],
      "stateMutability": "nonpayable",
      "type": "function"
    },
    {
      "inputs": [],
      "name": "rewardPerBlock",
      "outputs": [
        {
          "internalType": "uint256",
          "name": "",
          "type": "uint256"
        }
      ],
      "stateMutability": "view",
      "type": "function"
    },
    {
      "inputs": [
        {
          "internalType": "uint256",
          "name": "_pid",
          "type": "uint256"
        },
        {
          "internalType": "uint256",
          "name": "_allocPoint",
          "type": "uint256"
        },
        {
          "internalType": "bool",
          "name": "_withUpdate",
          "type": "bool"
        }
      ],
      "name": "set",
      "outputs": [],
      "stateMutability": "nonpayable",
      "type": "function"
    },
    {
      "inputs": [],
      "name": "startBlock",
      "outputs": [
        {
          "internalType": "uint256",
          "name": "",
          "type": "uint256"
        }
      ],
      "stateMutability": "view",
      "type": "function"
    },
    {
      "inputs": [],
      "name": "totalAllocPoint",
      "outputs": [
        {
          "internalType": "uint256",
          "name": "",
          "type": "uint256"
        }
      ],
      "stateMutability": "view",
      "type": "function"
    },
    {
      "inputs": [],
      "name": "totalPending",
      "outputs": [
        {
          "internalType": "uint256",
          "name": "",
          "type": "uint256"
        }
      ],
      "stateMutability": "view",
      "type": "function"
    },
    {
      "inputs": [
        {
          "internalType": "address",
          "name": "newOwner",
          "type": "address"
        }
      ],
      "name": "transferOwnership",
      "outputs": [],
      "stateMutability": "nonpayable",
      "type": "function"
    },
    {
      "inputs": [
        {
          "internalType": "uint256",
          "name": "_pid",
          "type": "uint256"
        }
      ],
      "name": "updatePool",
      "outputs": [],
      "stateMutability": "nonpayable",
      "type": "function"
    },
    {
      "inputs": [
        {
          "internalType": "uint256",
          "name": "",
          "type": "uint256"
        },
        {
          "internalType": "address",
          "name": "",
          "type": "address"
        }
      ],
      "name": "userInfo",
      "outputs": [
        {
          "internalType": "uint256",
          "name": "amount",
          "type": "uint256"
        },
        {
          "internalType": "uint256",
          "name": "rewardDebt",
          "type": "uint256"
        }
      ],
      "stateMutability": "view",
      "type": "function"
    },
    {
      "inputs": [
        {
          "internalType": "uint256",
          "name": "_pid",
          "type": "uint256"
        },
        {
          "internalType": "uint256",
          "name": "_amount",
          "type": "uint256"
        }
      ],
      "name": "withdraw",
      "outputs": [],
      "stateMutability": "nonpayable",
      "type": "function"
    }
  ],
  "bytecode": "0x60806040526000600255600060065534801561001a57600080fd5b506040516118b33803806118b3833981016040819052610039916100c3565b61004233610073565b600180546001600160a01b0319166001600160a01b0394909416939093179092556003556007819055600855610106565b600080546001600160a01b038381166001600160a01b0319831681178455604051919092169283917f8be0079c531659141344cd1fd0a4f28419497f9722a3daafe3b4186f6b6457e09190a35050565b6000806000606084860312156100d857600080fd5b83516001600160a01b03811681146100ef57600080fd5b602085015160409095015190969495509392505050565b61179e806101156000396000f3fe608060405234801561001057600080fd5b50600436106101735760003560e01c8063630b5ba1116100de57806393f1a40b11610097578063ca1d209d11610071578063ca1d209d14610351578063e2bbb15814610364578063e4c75c2714610377578063f2fde38b1461038a57600080fd5b806393f1a40b146102c1578063a238310614610308578063a83cad821461033e57600080fd5b8063630b5ba11461025957806364482f7914610261578063715018a614610274578063785e9e861461027c5780638ae39cac146102a75780638da5cb5b146102b057600080fd5b8063441a3e7011610130578063441a3e70146101fb57806348cd4cb11461020e5780634d3db9431461021757806351eb05a61461022a5780635312ea8e1461023d5780635c76ca2d1461025057600080fd5b8063081e3eda14610178578063083c63231461018f5780631526fe271461019857806317caf6f1146101d55780631eaaa045146101de5780633f90916a146101f3575b600080fd5b6004545b6040519081526020015b60405180910390f35b61017c60085481565b6101ab6101a6366004611482565b61039d565b604080516001600160a01b0390951685526020850193909352918301526060820152608001610186565b61017c60065481565b6101f16101ec3660046114be565b6103e1565b005b61017c61053b565b6101f1610209366004611500565b61058f565b61017c60075481565b6101f1610225366004611522565b61070d565b6101f1610238366004611482565b61087a565b6101f161024b366004611482565b6109cb565b61017c60025481565b6101f1610a6d565b6101f161026f36600461155b565b610a98565b6101f1610b47565b60015461028f906001600160a01b031681565b6040516001600160a01b039091168152602001610186565b61017c60035481565b6000546001600160a01b031661028f565b6102f36102cf366004611589565b60056020908152600092835260408084209091529082529020805460019091015482565b60408051928352602083019190915201610186565b61017c610316366004611589565b60009182526005602090815260408084206001600160a01b0393909316845291905290205490565b6101f161034c3660046115ae565b610b7d565b6101f161035f366004611482565b610c75565b6101f1610372366004611500565b610d42565b61017c610385366004611589565b610e5f565b6101f16103983660046115ae565b610fef565b600481815481106103ad57600080fd5b600091825260209091206004909102018054600182015460028301546003909301546001600160a01b039092169350919084565b6000546001600160a01b031633146104145760405162461bcd60e51b815260040161040b906115cb565b60405180910390fd5b801561042257610422610a6d565b6000600754431161043557600754610437565b435b600654909150610447908561108a565b600655604080516080810182526001600160a01b03948516815260208101958652908101918252600060608201818152600480546001810182559281905292517f8a35acfbc15ff81a39ae7d344fd709f28e8600b4aa8c65c6b64bfe7fe36bd19b9290930291820180546001600160a01b031916939096169290921790945593517f8a35acfbc15ff81a39ae7d344fd709f28e8600b4aa8c65c6b64bfe7fe36bd19c840155517f8a35acfbc15ff81a39ae7d344fd709f28e8600b4aa8c65c6b64bfe7fe36bd19d8301555090517f8a35acfbc15ff81a39ae7d344fd709f28e8600b4aa8c65c6b64bfe7fe36bd19e90910155565b6000600754431161054c5750600090565b6000600854431061055f57600854610561565b435b90506105896002546105836007548461057a9190611616565b6003549061109d565b906110a9565b91505090565b6000600483815481106105a4576105a461162d565b6000918252602080832086845260058252604080852033865290925292208054600490920290920192508311156106305760405162461bcd60e51b815260206004820152602a60248201527f77697468647261773a2063616e2774207769746864726177206d6f7265207468604482015269185b8819195c1bdcda5d60b21b606482015260840161040b565b6106398461087a565b600061067682600101546105836a0c097ce7bc90715b34b9f160241b6106708760030154876000015461109d90919063ffffffff16565b906110b5565b905061068233826110c1565b815461068e90856110a9565b80835560038401546106b4916a0c097ce7bc90715b34b9f160241b91610670919061109d565b600183015582546106cf906001600160a01b03163386611154565b604051848152859033907ff279e6a1f5e320cca91135676d9cb6e44ca8a08c0b88342bcdb1144f6511b5689060200160405180910390a35050505050565b6000546001600160a01b031633146107375760405162461bcd60e51b815260040161040b906115cb565b6008546107479062127500611643565b4210156107925760405162461bcd60e51b81526020600482015260196024820152782330b936b4b7339034b9903737ba1032b73232b2103cb2ba1760391b604482015260640161040b565b6040516370a0823160e01b81523060048201526000906001600160a01b038416906370a0823190602401602060405180830381865afa1580156107d9573d6000803e3d6000fd5b505050506040513d601f19601f820116820180604052508101906107fd919061165b565b60405163a9059cbb60e01b81526001600160a01b038481166004830152602482018390529192509084169063a9059cbb906044016020604051808303816000875af1158015610850573d6000803e3d6000fd5b505050506040513d601f19601f820116820180604052508101906108749190611674565b50505050565b60006004828154811061088f5761088f61162d565b90600052602060002090600402019050600060085443106108b2576008546108b4565b435b9050816002015481116108c657505050565b81546040516370a0823160e01b81523060048201526000916001600160a01b0316906370a0823190602401602060405180830381865afa15801561090e573d6000803e3d6000fd5b505050506040513d601f19601f82011682018060405250810190610932919061165b565b905080610943575060029091015550565b600061095c8460020154846110a990919063ffffffff16565b9050600061098960065461067087600101546109836003548761109d90919063ffffffff16565b9061109d565b90506109b56109aa84610670846a0c097ce7bc90715b34b9f160241b61109d565b60038701549061108a565b6003860155505043600290930192909255505050565b6000600482815481106109e0576109e061162d565b60009182526020808320858452600582526040808520338087529352909320805460049093029093018054909450610a25926001600160a01b03919091169190611154565b8054604051908152839033907fbb757047c2b5f3974fe26b7c10f732e7bce710b0952a71082702781e62ae05959060200160405180910390a360008082556001909101555050565b60045460005b81811015610a9457610a848161087a565b610a8d81611691565b9050610a73565b5050565b6000546001600160a01b03163314610ac25760405162461bcd60e51b815260040161040b906115cb565b8015610ad057610ad0610a6d565b610b1382610b0d60048681548110610aea57610aea61162d565b9060005260206000209060040201600101546006546110a990919063ffffffff16565b9061108a565b6006819055508160048481548110610b2d57610b2d61162d565b906000526020600020906004020160010181905550505050565b6000546001600160a01b03163314610b715760405162461bcd60e51b815260040161040b906115cb565b610b7b60006111b7565b565b6000546001600160a01b03163314610ba75760405162461bcd60e51b815260040161040b906115cb565b6008544790421015610bf75760405162461bcd60e51b81526020600482015260196024820152782330b936b4b7339034b9903737ba1032b73232b2103cb2ba1760391b604482015260640161040b565b60008111610c3a5760405162461bcd60e51b815260206004820152601060248201526f2130b630b731b29034b9903d32b9379760811b604482015260640161040b565b6040516001600160a01b0383169082156108fc029083906000818181858888f19350505050158015610c70573d6000803e3d6000fd5b505050565b6000546001600160a01b03163314610c9f5760405162461bcd60e51b815260040161040b906115cb565b6001546040516323b872dd60e01b8152336004820152306024820152604481018390526001600160a01b03909116906323b872dd906064016020604051808303816000875af1158015610cf6573d6000803e3d6000fd5b505050506040513d601f19601f82011682018060405250810190610d1a9190611674565b50600354610d299082906110b5565b60086000828254610d3a9190611643565b909155505050565b600060048381548110610d5757610d5761162d565b60009182526020808320868452600582526040808520338652909252922060049091029091019150610d888461087a565b805415610dd4576000610dc682600101546105836a0c097ce7bc90715b34b9f160241b6106708760030154876000015461109d90919063ffffffff16565b9050610dd233826110c1565b505b8154610deb906001600160a01b0316333086611207565b8054610df7908461108a565b8082556003830154610e1d916a0c097ce7bc90715b34b9f160241b91610670919061109d565b6001820155604051838152849033907f90890809c654f11d6e72a28fa60149770a0d11ec6c92319d6ceb2bb0a4ea1a159060200160405180910390a350505050565b60008060048481548110610e7557610e7561162d565b600091825260208083208784526005825260408085206001600160a01b038981168752935280852060049485029092016003810154815492516370a0823160e01b8152309681019690965290965091949193919216906370a0823190602401602060405180830381865afa158015610ef1573d6000803e3d6000fd5b505050506040513d601f19601f82011682018060405250810190610f15919061165b565b9050836002015443118015610f2957508015155b15610fb35760006008544310610f4157600854610f43565b435b90506000610f5e8660020154836110a990919063ffffffff16565b90506000610f8560065461067089600101546109836003548761109d90919063ffffffff16565b9050610fad610fa685610670846a0c097ce7bc90715b34b9f160241b61109d565b869061108a565b94505050505b610fe483600101546105836a0c097ce7bc90715b34b9f160241b61067086886000015461109d90919063ffffffff16565b979650505050505050565b6000546001600160a01b031633146110195760405162461bcd60e51b815260040161040b906115cb565b6001600160a01b03811661107e5760405162461bcd60e51b815260206004820152602660248201527f4f776e61626c653a206e6577206f776e657220697320746865207a65726f206160448201526564647265737360d01b606482015260840161040b565b611087816111b7565b50565b60006110968284611643565b9392505050565b600061109682846116ac565b60006110968284611616565b600061109682846116cb565b60015460405163a9059cbb60e01b81526001600160a01b038481166004830152602482018490529091169063a9059cbb906044016020604051808303816000875af1158015611114573d6000803e3d6000fd5b505050506040513d601f19601f820116820180604052508101906111389190611674565b50806002600082825461114b9190611643565b90915550505050565b6040516001600160a01b038316602482015260448101829052610c7090849063a9059cbb60e01b906064015b60408051601f198184030181529190526020810180516001600160e01b03166001600160e01b03199093169290921790915261123f565b600080546001600160a01b038381166001600160a01b0319831681178455604051919092169283917f8be0079c531659141344cd1fd0a4f28419497f9722a3daafe3b4186f6b6457e09190a35050565b6040516001600160a01b03808516602483015283166044820152606481018290526108749085906323b872dd60e01b90608401611180565b6000611294826040518060400160405280602081526020017f5361666545524332303a206c6f772d6c6576656c2063616c6c206661696c6564815250856001600160a01b03166113119092919063ffffffff16565b805190915015610c7057808060200190518101906112b29190611674565b610c705760405162461bcd60e51b815260206004820152602a60248201527f5361666545524332303a204552433230206f7065726174696f6e20646964206e6044820152691bdd081cdd58d8d9595960b21b606482015260840161040b565b60606113208484600085611328565b949350505050565b6060824710156113895760405162461bcd60e51b815260206004820152602660248201527f416464726573733a20696e73756666696369656e742062616c616e636520666f6044820152651c8818d85b1b60d21b606482015260840161040b565b6001600160a01b0385163b6113e05760405162461bcd60e51b815260206004820152601d60248201527f416464726573733a2063616c6c20746f206e6f6e2d636f6e7472616374000000604482015260640161040b565b600080866001600160a01b031685876040516113fc9190611719565b60006040518083038185875af1925050503d8060008114611439576040519150601f19603f3d011682016040523d82523d6000602084013e61143e565b606091505b5091509150610fe482828660608315611458575081611096565b8251156114685782518084602001fd5b8160405162461bcd60e51b815260040161040b9190611735565b60006020828403121561149457600080fd5b5035919050565b6001600160a01b038116811461108757600080fd5b801515811461108757600080fd5b6000806000606084860312156114d357600080fd5b8335925060208401356114e58161149b565b915060408401356114f5816114b0565b809150509250925092565b6000806040838503121561151357600080fd5b50508035926020909101359150565b6000806040838503121561153557600080fd5b82356115408161149b565b915060208301356115508161149b565b809150509250929050565b60008060006060848603121561157057600080fd5b833592506020840135915060408401356114f5816114b0565b6000806040838503121561159c57600080fd5b8235915060208301356115508161149b565b6000602082840312156115c057600080fd5b81356110968161149b565b6020808252818101527f4f776e61626c653a2063616c6c6572206973206e6f7420746865206f776e6572604082015260600190565b634e487b7160e01b600052601160045260246000fd5b60008282101561162857611628611600565b500390565b634e487b7160e01b600052603260045260246000fd5b6000821982111561165657611656611600565b500190565b60006020828403121561166d57600080fd5b5051919050565b60006020828403121561168657600080fd5b8151611096816114b0565b60006000198214156116a5576116a5611600565b5060010190565b60008160001904831182151516156116c6576116c6611600565b500290565b6000826116e857634e487b7160e01b600052601260045260246000fd5b500490565b60005b838110156117085781810151838201526020016116f0565b838111156108745750506000910152565b6000825161172b8184602087016116ed565b9190910192915050565b60208152600082518060208401526117548160408501602087016116ed565b601f01601f1916919091016040019291505056fea264697066735822122059ba89652f329a7baec73a417e87a298abc27555faaa084092ebc741950640ec64736f6c634300080c0033",
  "linkReferences": {},
  "deployedLinkReferences": {}
}